{
  "contractName": "Storage",
  "abi": [
    {
      "inputs": [],
      "stateMutability": "nonpayable",
      "type": "constructor"
    },
    {
      "inputs": [
        {
          "internalType": "uint256",
          "name": "",
          "type": "uint256"
        }
      ],
      "name": "aa",
      "outputs": [
        {
          "internalType": "uint256",
          "name": "",
          "type": "uint256"
        }
      ],
      "stateMutability": "view",
      "type": "function"
    },
    {
      "inputs": [
        {
          "internalType": "address",
          "name": "",
          "type": "address"
        }
      ],
      "name": "bb",
      "outputs": [
        {
          "internalType": "uint256",
          "name": "",
          "type": "uint256"
        }
      ],
      "stateMutability": "view",
      "type": "function"
    }
  ],
  "bytecode": "0x608060405234801561001057600080fd5b5060016000808081526020019081526020016000208190555060026000806001815260200190815260200160002081905550600180600073e3a01fc7ef159dc7bb9387cc2d994f2f99fd95df73ffffffffffffffffffffffffffffffffffffffff1673ffffffffffffffffffffffffffffffffffffffff1681526020019081526020016000208190555060026001600073f4a62d0a34504ef2a6e2a59cd35f4b46cf6f388e73ffffffffffffffffffffffffffffffffffffffff1673ffffffffffffffffffffffffffffffffffffffff1681526020019081526020016000208190555061021e806101026000396000f3fe608060405234801561001057600080fd5b50600436106100365760003560e01c80637323febe1461003b578063e1d9bbbd1461006b575b600080fd5b61005560048036038101906100509190610106565b61009b565b6040516100629190610142565b60405180910390f35b610085600480360381019061008091906101bb565b6100b3565b6040516100929190610142565b60405180910390f35b60006020528060005260406000206000915090505481565b60016020528060005260406000206000915090505481565b600080fd5b6000819050919050565b6100e3816100d0565b81146100ee57600080fd5b50565b600081359050610100816100da565b92915050565b60006020828403121561011c5761011b6100cb565b5b600061012a848285016100f1565b91505092915050565b61013c816100d0565b82525050565b60006020820190506101576000830184610133565b92915050565b600073ffffffffffffffffffffffffffffffffffffffff82169050919050565b60006101888261015d565b9050919050565b6101988161017d565b81146101a357600080fd5b50565b6000813590506101b58161018f565b92915050565b6000602082840312156101d1576101d06100cb565b5b60006101df848285016101a6565b9150509291505056fea26469706673582212207ec28b5a541a11f508d1c714080104bc7a5ace3970e0779e2ee7db130fb6c6da64736f6c634300080a0033",
  "immutableReferences": {},
  "source": "// SPDX-License-Identifier: MIT\npragma solidity >=0.4.22 <0.9.0;\n\n    contract Storage {\n\n        mapping (uint =>uint) public aa;\n        mapping(address=> uint) public bb;\n\n        constructor(){\n            aa[0] = 1;\n            aa[1] = 2;\n            bb[0xe3A01fc7eF159dC7Bb9387cc2d994F2F99Fd95Df] = 1;\n            bb[0xf4a62D0a34504Ef2a6E2a59Cd35F4B46CF6F388E] = 2;\n\n\n\n        }\n\n\n    }",
  "sourcePath": "/Users/danutandres/Desktop/Programmazione/UdemySolidityReactJS/faucet/contracts/Storage.sol",
  "compiler": {
    "name": "solc",
    "version": "0.8.10+commit.fc410830.Emscripten.clang"
  },
  "schemaVersion": "3.4.3",
  "updatedAt": "2021-12-09T16:52:14.662Z",
  "devdoc": {
    "kind": "dev",
    "methods": {},
    "version": 1
  },
  "userdoc": {
    "kind": "user",
    "methods": {},
    "version": 1
  }
}