{
  "contractName": "FaucetContract",
  "abi": [
    {
      "inputs": [],
      "name": "numFunders",
      "outputs": [
        {
          "internalType": "uint256",
          "name": "",
          "type": "uint256"
        }
      ],
      "stateMutability": "view",
      "type": "function",
      "constant": true
    },
    {
      "inputs": [],
      "name": "owner",
      "outputs": [
        {
          "internalType": "address",
          "name": "",
          "type": "address"
        }
      ],
      "stateMutability": "view",
      "type": "function",
      "constant": true
    },
    {
      "stateMutability": "payable",
      "type": "receive",
      "payable": true
    },
    {
      "inputs": [],
      "name": "testAdminPermits",
      "outputs": [],
      "stateMutability": "nonpayable",
      "type": "function"
    },
    {
      "inputs": [],
      "name": "test2",
      "outputs": [],
      "stateMutability": "nonpayable",
      "type": "function"
    },
    {
      "inputs": [],
      "name": "addFunds",
      "outputs": [],
      "stateMutability": "payable",
      "type": "function",
      "payable": true
    },
    {
      "inputs": [],
      "name": "emitLog",
      "outputs": [
        {
          "internalType": "bytes32",
          "name": "",
          "type": "bytes32"
        }
      ],
      "stateMutability": "pure",
      "type": "function",
      "constant": true
    },
    {
      "inputs": [
        {
          "internalType": "uint256",
          "name": "quantity",
          "type": "uint256"
        }
      ],
      "name": "withdraw",
      "outputs": [],
      "stateMutability": "nonpayable",
      "type": "function"
    },
    {
      "inputs": [],
      "name": "getAllFunders",
      "outputs": [
        {
          "internalType": "address[]",
          "name": "",
          "type": "address[]"
        }
      ],
      "stateMutability": "view",
      "type": "function",
      "constant": true
    },
    {
      "inputs": [
        {
          "internalType": "uint8",
          "name": "index",
          "type": "uint8"
        }
      ],
      "name": "getFunderAtIndex",
      "outputs": [
        {
          "internalType": "address",
          "name": "",
          "type": "address"
        }
      ],
      "stateMutability": "view",
      "type": "function",
      "constant": true
    },
    {
      "inputs": [],
      "name": "testFunct",
      "outputs": [
        {
          "internalType": "uint256",
          "name": "",
          "type": "uint256"
        }
      ],
      "stateMutability": "pure",
      "type": "function",
      "constant": true
    },
    {
      "inputs": [
        {
          "internalType": "address",
          "name": "newOwner",
          "type": "address"
        }
      ],
      "name": "transferOwner",
      "outputs": [],
      "stateMutability": "nonpayable",
      "type": "function"
    }
  ],
  "bytecode": "0x608060405234801561001057600080fd5b50336000806101000a81548173ffffffffffffffffffffffffffffffffffffffff021916908373ffffffffffffffffffffffffffffffffffffffff160217905550610c63806100606000396000f3fe6080604052600436106100a05760003560e01c80636fbbb55d116100645780636fbbb55d1461016957806370a42b3d146101945780638da5cb5b146101bf578063a26759cb146101ea578063b9632689146101f4578063f42c13bf1461021f576100a7565b80630a93cf33146100ac5780632e1a7d4d146100e957806341cf0405146101125780634fb2e45d1461012957806366e41cb714610152576100a7565b366100a757005b600080fd5b3480156100b857600080fd5b506100d360048036038101906100ce91906107c5565b61024a565b6040516100e09190610833565b60405180910390f35b3480156100f557600080fd5b50610110600480360381019061010b9190610884565b61028a565b005b34801561011e57600080fd5b50610127610321565b005b34801561013557600080fd5b50610150600480360381019061014b91906108dd565b6103b1565b005b34801561015e57600080fd5b50610167610482565b005b34801561017557600080fd5b5061017e610512565b60405161018b91906109c8565b60405180910390f35b3480156101a057600080fd5b506101a961060c565b6040516101b691906109f9565b60405180910390f35b3480156101cb57600080fd5b506101d4610615565b6040516101e19190610833565b60405180910390f35b6101f2610639565b005b34801561020057600080fd5b50610209610759565b60405161021691906109f9565b60405180910390f35b34801561022b57600080fd5b5061023461075f565b6040516102419190610a2d565b60405180910390f35b6000600360008360ff16815260200190815260200160002060009054906101000a900473ffffffffffffffffffffffffffffffffffffffff169050919050565b806702c68af0bb1400008111156102d6576040517f08c379a00000000000000000000000000000000000000000000000000000000081526004016102cd90610acb565b60405180910390fd5b3373ffffffffffffffffffffffffffffffffffffffff166108fc839081150290604051600060405180830381858888f1935050505015801561031c573d6000803e3d6000fd5b505050565b60008054906101000a900473ffffffffffffffffffffffffffffffffffffffff1673ffffffffffffffffffffffffffffffffffffffff163373ffffffffffffffffffffffffffffffffffffffff16146103af576040517f08c379a00000000000000000000000000000000000000000000000000000000081526004016103a690610b37565b60405180910390fd5b565b60008054906101000a900473ffffffffffffffffffffffffffffffffffffffff1673ffffffffffffffffffffffffffffffffffffffff163373ffffffffffffffffffffffffffffffffffffffff161461043f576040517f08c379a000000000000000000000000000000000000000000000000000000000815260040161043690610b37565b60405180910390fd5b806000806101000a81548173ffffffffffffffffffffffffffffffffffffffff021916908373ffffffffffffffffffffffffffffffffffffffff16021790555050565b60008054906101000a900473ffffffffffffffffffffffffffffffffffffffff1673ffffffffffffffffffffffffffffffffffffffff163373ffffffffffffffffffffffffffffffffffffffff1614610510576040517f08c379a000000000000000000000000000000000000000000000000000000000815260040161050790610b37565b60405180910390fd5b565b6060600060015467ffffffffffffffff81111561053257610531610b57565b5b6040519080825280602002602001820160405280156105605781602001602082028036833780820191505090505b50905060005b600154811015610604576003600082815260200190815260200160002060009054906101000a900473ffffffffffffffffffffffffffffffffffffffff168282815181106105b7576105b6610b86565b5b602002602001019073ffffffffffffffffffffffffffffffffffffffff16908173ffffffffffffffffffffffffffffffffffffffff168152505080806105fc90610be4565b915050610566565b508091505090565b60006004905090565b60008054906101000a900473ffffffffffffffffffffffffffffffffffffffff1681565b6000339050600260008273ffffffffffffffffffffffffffffffffffffffff1673ffffffffffffffffffffffffffffffffffffffff16815260200190815260200160002060009054906101000a900460ff16610756576000600160008154809291906106a490610be4565b9190505590506001600260008473ffffffffffffffffffffffffffffffffffffffff1673ffffffffffffffffffffffffffffffffffffffff16815260200190815260200160002060006101000a81548160ff021916908315150217905550816003600083815260200190815260200160002060006101000a81548173ffffffffffffffffffffffffffffffffffffffff021916908373ffffffffffffffffffffffffffffffffffffffff160217905550505b50565b60015481565b60007f6c6f672074657374000000000000000000000000000000000000000000000000905090565b600080fd5b600060ff82169050919050565b6107a28161078c565b81146107ad57600080fd5b50565b6000813590506107bf81610799565b92915050565b6000602082840312156107db576107da610787565b5b60006107e9848285016107b0565b91505092915050565b600073ffffffffffffffffffffffffffffffffffffffff82169050919050565b600061081d826107f2565b9050919050565b61082d81610812565b82525050565b60006020820190506108486000830184610824565b92915050565b6000819050919050565b6108618161084e565b811461086c57600080fd5b50565b60008135905061087e81610858565b92915050565b60006020828403121561089a57610899610787565b5b60006108a88482850161086f565b91505092915050565b6108ba81610812565b81146108c557600080fd5b50565b6000813590506108d7816108b1565b92915050565b6000602082840312156108f3576108f2610787565b5b6000610901848285016108c8565b91505092915050565b600081519050919050565b600082825260208201905092915050565b6000819050602082019050919050565b61093f81610812565b82525050565b60006109518383610936565b60208301905092915050565b6000602082019050919050565b60006109758261090a565b61097f8185610915565b935061098a83610926565b8060005b838110156109bb5781516109a28882610945565b97506109ad8361095d565b92505060018101905061098e565b5085935050505092915050565b600060208201905081810360008301526109e2818461096a565b905092915050565b6109f38161084e565b82525050565b6000602082019050610a0e60008301846109ea565b92915050565b6000819050919050565b610a2781610a14565b82525050565b6000602082019050610a426000830184610a1e565b92915050565b600082825260208201905092915050565b7f63616e6e6f74207769746864726177206d6f7265207468616e2020302e31206560008201527f7468000000000000000000000000000000000000000000000000000000000000602082015250565b6000610ab5602283610a48565b9150610ac082610a59565b604082019050919050565b60006020820190508181036000830152610ae481610aa8565b9050919050565b7f4f6e6c79204f776e65722063616e2063616c6c20697400000000000000000000600082015250565b6000610b21601683610a48565b9150610b2c82610aeb565b602082019050919050565b60006020820190508181036000830152610b5081610b14565b9050919050565b7f4e487b7100000000000000000000000000000000000000000000000000000000600052604160045260246000fd5b7f4e487b7100000000000000000000000000000000000000000000000000000000600052603260045260246000fd5b7f4e487b7100000000000000000000000000000000000000000000000000000000600052601160045260246000fd5b6000610bef8261084e565b91507fffffffffffffffffffffffffffffffffffffffffffffffffffffffffffffffff821415610c2257610c21610bb5565b5b60018201905091905056fea26469706673582212204a4e77112ffa0ce1dbcc570054d405e8f922628d908914e60ae317d47c56336a64736f6c634300080a0033",
  "immutableReferences": {},
  "source": "// SPDX-License-Identifier: UNLICENSED\npragma solidity >= 0.4.22 <0.9.0;\nimport \"./Owned.sol\";\nimport \"./Logger.sol\";\nimport \"./IFaucetContract.sol\";\n\ncontract FaucetContract is Owned, Logger , IFaucetContract{\n    uint public numFunders;\n\n    mapping(address => bool ) private funders;\n    mapping(uint => address ) private lutFunders;\n\n   \n\n    modifier limitEthWithdraw(uint weiAmount) {\n        require(weiAmount<=200000000000000000, \n        \"cannot withdraw more than  0.1 eth\");\n        _;\n    }\n    function testAdminPermits() external onlyOwner {\n\n    }\n    function test2() external onlyOwner{\n\n    }\n\n    //funzione payable -> transazione + external ; pu essere chiamata in modo publico\n    //interfacia di una funzione che pu essere implementata da un'altro contratto \n    //gas cost ++\n    receive() external payable {}  \n    //transazioni -> gas FEE + alter state change\n    function addFunds() override external payable {\n        address funder = msg.sender;\n        if(!funders[funder]) {  \n             uint index = numFunders++;\n             funders[funder] = true; \n             lutFunders[index] = funder;\n\n        }\n    \n    }\n        function emitLog() public override pure returns(bytes32){\n            return \"log test\";\n        }\n\n    function withdraw (uint quantity) override external limitEthWithdraw(quantity) {\n        payable(msg.sender).transfer(quantity);\n    }\n    function getAllFunders() external view returns (address[] memory) {\n        address[] memory _funders = new address[](numFunders);\n        for (uint i= 0; i<numFunders; i++) {\n            _funders[i] = lutFunders[i];\n\n        }\n        return _funders;\n    }\n   \n    //const instance = await FaucetContract.deployed()\n    //instance.addFunds({from:accounts[0], value: \"555\"})\n    //instance.addFunds({from:accounts[1], value: \"100000000000000000\"})\n    //instance.addFunds({from:accounts[2], value: \"3400000000\"})\n    //instance.getFunderAtIndex(0)\n    //instance.getAllFunders()\n    //instance.withdraw(10000000000)\n    //instance.withdraw(\"10000000000000000000\", {from: accounts[0]})\n    //instance.testAdminPermits({from:accounts[0]})\n    //instance.testAdminPermits({from:accounts[1]})\n\n\n\n\n    function getFunderAtIndex(uint8 index) external view returns (address) {\n        return lutFunders[index]; \n\n    }\n        //pure / view ->read only/ zero gas\n        // view -> la funzione non pu alterare lo stato dello storage in qualsiasi modo\n        //ancora pi rigido, non legger nemmeno lo stato dello storage \n        //non pu accedere ai dati del contract in generale\n\n    function testFunct() external \n    pure returns (uint) {\n        return 2+2;  \n    }    \n    function transferOwner(address newOwner) external onlyOwner {\n        owner = newOwner;\n    }\n}",
  "sourcePath": "/Users/danutandres/Desktop/Programmazione/UdemySolidityReactJS/UdemySolidityReactJS/faucet/contracts/FaucetContract.sol",
  "compiler": {
    "name": "solc",
    "version": "0.8.10+commit.fc410830.Emscripten.clang"
  },
  "schemaVersion": "3.4.3",
  "updatedAt": "2021-12-18T14:03:56.872Z",
  "networkType": "ethereum",
  "devdoc": {
    "kind": "dev",
    "methods": {},
    "version": 1
  },
  "userdoc": {
    "kind": "user",
    "methods": {},
    "version": 1
  }
}